{
  "contractName": "EventureNFT",
  "abi": [
    {
      "inputs": [],
      "stateMutability": "nonpayable",
      "type": "constructor"
    },
    {
      "inputs": [
        {
          "internalType": "address",
          "name": "sender",
          "type": "address"
        },
        {
          "internalType": "uint256",
          "name": "tokenId",
          "type": "uint256"
        },
        {
          "internalType": "address",
          "name": "owner",
          "type": "address"
        }
      ],
      "name": "ERC721IncorrectOwner",
      "type": "error"
    },
    {
      "inputs": [
        {
          "internalType": "address",
          "name": "operator",
          "type": "address"
        },
        {
          "internalType": "uint256",
          "name": "tokenId",
          "type": "uint256"
        }
      ],
      "name": "ERC721InsufficientApproval",
      "type": "error"
    },
    {
      "inputs": [
        {
          "internalType": "address",
          "name": "approver",
          "type": "address"
        }
      ],
      "name": "ERC721InvalidApprover",
      "type": "error"
    },
    {
      "inputs": [
        {
          "internalType": "address",
          "name": "operator",
          "type": "address"
        }
      ],
      "name": "ERC721InvalidOperator",
      "type": "error"
    },
    {
      "inputs": [
        {
          "internalType": "address",
          "name": "owner",
          "type": "address"
        }
      ],
      "name": "ERC721InvalidOwner",
      "type": "error"
    },
    {
      "inputs": [
        {
          "internalType": "address",
          "name": "receiver",
          "type": "address"
        }
      ],
      "name": "ERC721InvalidReceiver",
      "type": "error"
    },
    {
      "inputs": [
        {
          "internalType": "address",
          "name": "sender",
          "type": "address"
        }
      ],
      "name": "ERC721InvalidSender",
      "type": "error"
    },
    {
      "inputs": [
        {
          "internalType": "uint256",
          "name": "tokenId",
          "type": "uint256"
        }
      ],
      "name": "ERC721NonexistentToken",
      "type": "error"
    },
    {
      "inputs": [
        {
          "internalType": "address",
          "name": "owner",
          "type": "address"
        }
      ],
      "name": "OwnableInvalidOwner",
      "type": "error"
    },
    {
      "inputs": [
        {
          "internalType": "address",
          "name": "account",
          "type": "address"
        }
      ],
      "name": "OwnableUnauthorizedAccount",
      "type": "error"
    },
    {
      "anonymous": false,
      "inputs": [
        {
          "indexed": true,
          "internalType": "address",
          "name": "owner",
          "type": "address"
        },
        {
          "indexed": true,
          "internalType": "address",
          "name": "approved",
          "type": "address"
        },
        {
          "indexed": true,
          "internalType": "uint256",
          "name": "tokenId",
          "type": "uint256"
        }
      ],
      "name": "Approval",
      "type": "event"
    },
    {
      "anonymous": false,
      "inputs": [
        {
          "indexed": true,
          "internalType": "address",
          "name": "owner",
          "type": "address"
        },
        {
          "indexed": true,
          "internalType": "address",
          "name": "operator",
          "type": "address"
        },
        {
          "indexed": false,
          "internalType": "bool",
          "name": "approved",
          "type": "bool"
        }
      ],
      "name": "ApprovalForAll",
      "type": "event"
    },
    {
      "anonymous": false,
      "inputs": [
        {
          "indexed": false,
          "internalType": "uint256",
          "name": "_fromTokenId",
          "type": "uint256"
        },
        {
          "indexed": false,
          "internalType": "uint256",
          "name": "_toTokenId",
          "type": "uint256"
        }
      ],
      "name": "BatchMetadataUpdate",
      "type": "event"
    },
    {
      "anonymous": false,
      "inputs": [
        {
          "indexed": false,
          "internalType": "uint256",
          "name": "_tokenId",
          "type": "uint256"
        }
      ],
      "name": "MetadataUpdate",
      "type": "event"
    },
    {
      "anonymous": false,
      "inputs": [
        {
          "indexed": true,
          "internalType": "address",
          "name": "previousOwner",
          "type": "address"
        },
        {
          "indexed": true,
          "internalType": "address",
          "name": "newOwner",
          "type": "address"
        }
      ],
      "name": "OwnershipTransferred",
      "type": "event"
    },
    {
      "anonymous": false,
      "inputs": [
        {
          "indexed": true,
          "internalType": "address",
          "name": "from",
          "type": "address"
        },
        {
          "indexed": true,
          "internalType": "address",
          "name": "to",
          "type": "address"
        },
        {
          "indexed": true,
          "internalType": "uint256",
          "name": "tokenId",
          "type": "uint256"
        }
      ],
      "name": "Transfer",
      "type": "event"
    },
    {
      "inputs": [],
      "name": "admin",
      "outputs": [
        {
          "internalType": "address",
          "name": "",
          "type": "address"
        }
      ],
      "stateMutability": "view",
      "type": "function",
      "constant": true
    },
    {
      "inputs": [
        {
          "internalType": "address",
          "name": "to",
          "type": "address"
        },
        {
          "internalType": "uint256",
          "name": "tokenId",
          "type": "uint256"
        }
      ],
      "name": "approve",
      "outputs": [],
      "stateMutability": "nonpayable",
      "type": "function"
    },
    {
      "inputs": [
        {
          "internalType": "address",
          "name": "owner",
          "type": "address"
        }
      ],
      "name": "balanceOf",
      "outputs": [
        {
          "internalType": "uint256",
          "name": "",
          "type": "uint256"
        }
      ],
      "stateMutability": "view",
      "type": "function",
      "constant": true
    },
    {
      "inputs": [
        {
          "internalType": "uint256",
          "name": "",
          "type": "uint256"
        }
      ],
      "name": "events",
      "outputs": [
        {
          "internalType": "address",
          "name": "organizer",
          "type": "address"
        },
        {
          "internalType": "string",
          "name": "metadataHash",
          "type": "string"
        },
        {
          "internalType": "uint256",
          "name": "maxTickets",
          "type": "uint256"
        },
        {
          "internalType": "uint256",
          "name": "soldCount",
          "type": "uint256"
        },
        {
          "internalType": "bool",
          "name": "isCancelled",
          "type": "bool"
        },
        {
          "internalType": "bool",
          "name": "exists",
          "type": "bool"
        }
      ],
      "stateMutability": "view",
      "type": "function",
      "constant": true
    },
    {
      "inputs": [
        {
          "internalType": "uint256",
          "name": "tokenId",
          "type": "uint256"
        }
      ],
      "name": "getApproved",
      "outputs": [
        {
          "internalType": "address",
          "name": "",
          "type": "address"
        }
      ],
      "stateMutability": "view",
      "type": "function",
      "constant": true
    },
    {
      "inputs": [
        {
          "internalType": "address",
          "name": "owner",
          "type": "address"
        },
        {
          "internalType": "address",
          "name": "operator",
          "type": "address"
        }
      ],
      "name": "isApprovedForAll",
      "outputs": [
        {
          "internalType": "bool",
          "name": "",
          "type": "bool"
        }
      ],
      "stateMutability": "view",
      "type": "function",
      "constant": true
    },
    {
      "inputs": [
        {
          "internalType": "uint256",
          "name": "",
          "type": "uint256"
        }
      ],
      "name": "isListed",
      "outputs": [
        {
          "internalType": "bool",
          "name": "",
          "type": "bool"
        }
      ],
      "stateMutability": "view",
      "type": "function",
      "constant": true
    },
    {
      "inputs": [],
      "name": "name",
      "outputs": [
        {
          "internalType": "string",
          "name": "",
          "type": "string"
        }
      ],
      "stateMutability": "view",
      "type": "function",
      "constant": true
    },
    {
      "inputs": [],
      "name": "nextTokenId",
      "outputs": [
        {
          "internalType": "uint256",
          "name": "",
          "type": "uint256"
        }
      ],
      "stateMutability": "view",
      "type": "function",
      "constant": true
    },
    {
      "inputs": [],
      "name": "owner",
      "outputs": [
        {
          "internalType": "address",
          "name": "",
          "type": "address"
        }
      ],
      "stateMutability": "view",
      "type": "function",
      "constant": true
    },
    {
      "inputs": [
        {
          "internalType": "uint256",
          "name": "tokenId",
          "type": "uint256"
        }
      ],
      "name": "ownerOf",
      "outputs": [
        {
          "internalType": "address",
          "name": "",
          "type": "address"
        }
      ],
      "stateMutability": "view",
      "type": "function",
      "constant": true
    },
    {
      "inputs": [],
      "name": "renounceOwnership",
      "outputs": [],
      "stateMutability": "nonpayable",
      "type": "function"
    },
    {
      "inputs": [
        {
          "internalType": "uint256",
          "name": "",
          "type": "uint256"
        }
      ],
      "name": "resalePrice",
      "outputs": [
        {
          "internalType": "uint256",
          "name": "",
          "type": "uint256"
        }
      ],
      "stateMutability": "view",
      "type": "function",
      "constant": true
    },
    {
      "inputs": [
        {
          "internalType": "address",
          "name": "from",
          "type": "address"
        },
        {
          "internalType": "address",
          "name": "to",
          "type": "address"
        },
        {
          "internalType": "uint256",
          "name": "tokenId",
          "type": "uint256"
        }
      ],
      "name": "safeTransferFrom",
      "outputs": [],
      "stateMutability": "nonpayable",
      "type": "function"
    },
    {
      "inputs": [
        {
          "internalType": "address",
          "name": "from",
          "type": "address"
        },
        {
          "internalType": "address",
          "name": "to",
          "type": "address"
        },
        {
          "internalType": "uint256",
          "name": "tokenId",
          "type": "uint256"
        },
        {
          "internalType": "bytes",
          "name": "data",
          "type": "bytes"
        }
      ],
      "name": "safeTransferFrom",
      "outputs": [],
      "stateMutability": "nonpayable",
      "type": "function"
    },
    {
      "inputs": [
        {
          "internalType": "address",
          "name": "operator",
          "type": "address"
        },
        {
          "internalType": "bool",
          "name": "approved",
          "type": "bool"
        }
      ],
      "name": "setApprovalForAll",
      "outputs": [],
      "stateMutability": "nonpayable",
      "type": "function"
    },
    {
      "inputs": [
        {
          "internalType": "bytes4",
          "name": "interfaceId",
          "type": "bytes4"
        }
      ],
      "name": "supportsInterface",
      "outputs": [
        {
          "internalType": "bool",
          "name": "",
          "type": "bool"
        }
      ],
      "stateMutability": "view",
      "type": "function",
      "constant": true
    },
    {
      "inputs": [],
      "name": "symbol",
      "outputs": [
        {
          "internalType": "string",
          "name": "",
          "type": "string"
        }
      ],
      "stateMutability": "view",
      "type": "function",
      "constant": true
    },
    {
      "inputs": [
        {
          "internalType": "uint256",
          "name": "",
          "type": "uint256"
        }
      ],
      "name": "ticketEvent",
      "outputs": [
        {
          "internalType": "uint256",
          "name": "",
          "type": "uint256"
        }
      ],
      "stateMutability": "view",
      "type": "function",
      "constant": true
    },
    {
      "inputs": [
        {
          "internalType": "uint256",
          "name": "",
          "type": "uint256"
        }
      ],
      "name": "ticketPrice",
      "outputs": [
        {
          "internalType": "uint256",
          "name": "",
          "type": "uint256"
        }
      ],
      "stateMutability": "view",
      "type": "function",
      "constant": true
    },
    {
      "inputs": [
        {
          "internalType": "uint256",
          "name": "",
          "type": "uint256"
        }
      ],
      "name": "tokenExists",
      "outputs": [
        {
          "internalType": "bool",
          "name": "",
          "type": "bool"
        }
      ],
      "stateMutability": "view",
      "type": "function",
      "constant": true
    },
    {
      "inputs": [
        {
          "internalType": "uint256",
          "name": "tokenId",
          "type": "uint256"
        }
      ],
      "name": "tokenURI",
      "outputs": [
        {
          "internalType": "string",
          "name": "",
          "type": "string"
        }
      ],
      "stateMutability": "view",
      "type": "function",
      "constant": true
    },
    {
      "inputs": [
        {
          "internalType": "address",
          "name": "from",
          "type": "address"
        },
        {
          "internalType": "address",
          "name": "to",
          "type": "address"
        },
        {
          "internalType": "uint256",
          "name": "tokenId",
          "type": "uint256"
        }
      ],
      "name": "transferFrom",
      "outputs": [],
      "stateMutability": "nonpayable",
      "type": "function"
    },
    {
      "inputs": [
        {
          "internalType": "address",
          "name": "newOwner",
          "type": "address"
        }
      ],
      "name": "transferOwnership",
      "outputs": [],
      "stateMutability": "nonpayable",
      "type": "function"
    },
    {
      "stateMutability": "payable",
      "type": "receive",
      "payable": true
    },
    {
      "inputs": [
        {
          "internalType": "uint256",
          "name": "eventId",
          "type": "uint256"
        },
        {
          "internalType": "string",
          "name": "metadataHash",
          "type": "string"
        },
        {
          "internalType": "uint256",
          "name": "maxTickets",
          "type": "uint256"
        }
      ],
      "name": "createEvent",
      "outputs": [],
      "stateMutability": "nonpayable",
      "type": "function"
    },
    {
      "inputs": [
        {
          "internalType": "address",
          "name": "to",
          "type": "address"
        },
        {
          "internalType": "uint256",
          "name": "eventId",
          "type": "uint256"
        },
        {
          "internalType": "string",
          "name": "tokenURI",
          "type": "string"
        }
      ],
      "name": "mintTicket",
      "outputs": [],
      "stateMutability": "payable",
      "type": "function",
      "payable": true
    },
    {
      "inputs": [
        {
          "internalType": "uint256",
          "name": "eventId",
          "type": "uint256"
        }
      ],
      "name": "cancelEvent",
      "outputs": [],
      "stateMutability": "nonpayable",
      "type": "function"
    },
    {
      "inputs": [
        {
          "internalType": "uint256",
          "name": "tokenId",
          "type": "uint256"
        }
      ],
      "name": "refund",
      "outputs": [],
      "stateMutability": "nonpayable",
      "type": "function"
    },
    {
      "inputs": [
        {
          "internalType": "uint256",
          "name": "tokenId",
          "type": "uint256"
        },
        {
          "internalType": "uint256",
          "name": "price",
          "type": "uint256"
        }
      ],
      "name": "listTicketForResale",
      "outputs": [],
      "stateMutability": "nonpayable",
      "type": "function"
    },
    {
      "inputs": [
        {
          "internalType": "uint256",
          "name": "tokenId",
          "type": "uint256"
        }
      ],
      "name": "buyResaleTicket",
      "outputs": [],
      "stateMutability": "payable",
      "type": "function",
      "payable": true
    },
    {
      "inputs": [
        {
          "internalType": "address",
          "name": "newAdmin",
          "type": "address"
        }
      ],
      "name": "setAdmin",
      "outputs": [],
      "stateMutability": "nonpayable",
      "type": "function"
    }
  ],
  "bytecode": "0x608060405234801562000010575f80fd5b50336040518060400160405280600e81526020017f4576656e747572655469636b65740000000000000000000000000000000000008152506040518060400160405280600481526020017f4554495800000000000000000000000000000000000000000000000000000000815250815f90816200008e919062000495565b508060019081620000a0919062000495565b5050505f73ffffffffffffffffffffffffffffffffffffffff168173ffffffffffffffffffffffffffffffffffffffff160362000116575f6040517f1e4fbdf70000000000000000000000000000000000000000000000000000000081526004016200010d9190620005bc565b60405180910390fd5b62000127816200016e60201b60201c565b503360095f6101000a81548173ffffffffffffffffffffffffffffffffffffffff021916908373ffffffffffffffffffffffffffffffffffffffff160217905550620005d7565b5f60075f9054906101000a900473ffffffffffffffffffffffffffffffffffffffff1690508160075f6101000a81548173ffffffffffffffffffffffffffffffffffffffff021916908373ffffffffffffffffffffffffffffffffffffffff1602179055508173ffffffffffffffffffffffffffffffffffffffff168173ffffffffffffffffffffffffffffffffffffffff167f8be0079c531659141344cd1fd0a4f28419497f9722a3daafe3b4186f6b6457e060405160405180910390a35050565b5f81519050919050565b7f4e487b71000000000000000000000000000000000000000000000000000000005f52604160045260245ffd5b7f4e487b71000000000000000000000000000000000000000000000000000000005f52602260045260245ffd5b5f6002820490506001821680620002ad57607f821691505b602082108103620002c357620002c262000268565b5b50919050565b5f819050815f5260205f209050919050565b5f6020601f8301049050919050565b5f82821b905092915050565b5f60088302620003277fffffffffffffffffffffffffffffffffffffffffffffffffffffffffffffffff82620002ea565b620003338683620002ea565b95508019841693508086168417925050509392505050565b5f819050919050565b5f819050919050565b5f6200037d6200037762000371846200034b565b62000354565b6200034b565b9050919050565b5f819050919050565b62000398836200035d565b620003b0620003a78262000384565b848454620002f6565b825550505050565b5f90565b620003c6620003b8565b620003d38184846200038d565b505050565b5b81811015620003fa57620003ee5f82620003bc565b600181019050620003d9565b5050565b601f82111562000449576200041381620002c9565b6200041e84620002db565b810160208510156200042e578190505b620004466200043d85620002db565b830182620003d8565b50505b505050565b5f82821c905092915050565b5f6200046b5f19846008026200044e565b1980831691505092915050565b5f6200048583836200045a565b9150826002028217905092915050565b620004a08262000231565b67ffffffffffffffff811115620004bc57620004bb6200023b565b5b620004c8825462000295565b620004d5828285620003fe565b5f60209050601f8311600181146200050b575f8415620004f6578287015190505b62000502858262000478565b86555062000571565b601f1984166200051b86620002c9565b5f5b8281101562000544578489015182556001820191506020850194506020810190506200051d565b8683101562000564578489015162000560601f8916826200045a565b8355505b6001600288020188555050505b505050505050565b5f73ffffffffffffffffffffffffffffffffffffffff82169050919050565b5f620005a48262000579565b9050919050565b620005b68162000598565b82525050565b5f602082019050620005d15f830184620005ab565b92915050565b613f3e80620005e55f395ff3fe6080604052600436106101da575f3560e01c80636352211e11610101578063a22cb46511610094578063e985e9c511610063578063e985e9c5146106c8578063f2fde38b14610704578063f851a4401461072c578063fcce488314610756576101e1565b8063a22cb46514610600578063b88d4fde14610628578063c20b324d14610650578063c87b56dd1461068c576101e1565b806375794a3c116100d057806375794a3c1461055a57806383372b5b146105845780638da5cb5b146105ac57806395d89b41146105d6576101e1565b80636352211e146104a4578063704b6c02146104e057806370a0823114610508578063715018a614610544576101e1565b80630b79143011610179578063278ecde111610148578063278ecde1146104045780633f69babd1461042c57806342842e0e146104545780636053b0ef1461047c576101e1565b80630b791430146103435780630d93e609146103845780631d9c5d5c146103c057806323b872dd146103dc576101e1565b80630384ca49116101b55780630384ca491461027957806306fdde03146102b5578063081812fc146102df578063095ea7b31461031b576101e1565b8062923f9e146101e557806301ffc9a71461022157806303543fea1461025d576101e1565b366101e157005b5f80fd5b3480156101f0575f80fd5b5061020b60048036038101906102069190612bf2565b610792565b6040516102189190612c37565b60405180910390f35b34801561022c575f80fd5b5061024760048036038101906102429190612ca5565b6107af565b6040516102549190612c37565b60405180910390f35b61027760048036038101906102729190612e66565b61080f565b005b348015610284575f80fd5b5061029f600480360381019061029a9190612bf2565b6109b5565b6040516102ac9190612ee1565b60405180910390f35b3480156102c0575f80fd5b506102c96109ca565b6040516102d69190612f74565b60405180910390f35b3480156102ea575f80fd5b5061030560048036038101906103009190612bf2565b610a59565b6040516103129190612fa3565b60405180910390f35b348015610326575f80fd5b50610341600480360381019061033c9190612fbc565b610a74565b005b34801561034e575f80fd5b5061036960048036038101906103649190612bf2565b610a8a565b60405161037b96959493929190612ffa565b60405180910390f35b34801561038f575f80fd5b506103aa60048036038101906103a59190612bf2565b610b80565b6040516103b79190612ee1565b60405180910390f35b6103da60048036038101906103d59190612bf2565b610b95565b005b3480156103e7575f80fd5b5061040260048036038101906103fd9190613060565b610d47565b005b34801561040f575f80fd5b5061042a60048036038101906104259190612bf2565b610e46565b005b348015610437575f80fd5b50610452600480360381019061044d9190612bf2565b6110da565b005b34801561045f575f80fd5b5061047a60048036038101906104759190613060565b6111a9565b005b348015610487575f80fd5b506104a2600480360381019061049d91906130b0565b6111c8565b005b3480156104af575f80fd5b506104ca60048036038101906104c59190612bf2565b611397565b6040516104d79190612fa3565b60405180910390f35b3480156104eb575f80fd5b50610506600480360381019061050191906130ee565b6113a8565b005b348015610513575f80fd5b5061052e600480360381019061052991906130ee565b6113f3565b60405161053b9190612ee1565b60405180910390f35b34801561054f575f80fd5b506105586114a9565b005b348015610565575f80fd5b5061056e6114bc565b60405161057b9190612ee1565b60405180910390f35b34801561058f575f80fd5b506105aa60048036038101906105a59190613119565b6114c2565b005b3480156105b7575f80fd5b506105c0611632565b6040516105cd9190612fa3565b60405180910390f35b3480156105e1575f80fd5b506105ea61165a565b6040516105f79190612f74565b60405180910390f35b34801561060b575f80fd5b50610626600480360381019061062191906131af565b6116ea565b005b348015610633575f80fd5b5061064e6004803603810190610649919061328b565b611700565b005b34801561065b575f80fd5b5061067660048036038101906106719190612bf2565b611725565b6040516106839190612ee1565b60405180910390f35b348015610697575f80fd5b506106b260048036038101906106ad9190612bf2565b61173a565b6040516106bf9190612f74565b60405180910390f35b3480156106d3575f80fd5b506106ee60048036038101906106e9919061330b565b611845565b6040516106fb9190612c37565b60405180910390f35b34801561070f575f80fd5b5061072a600480360381019061072591906130ee565b6118d3565b005b348015610737575f80fd5b50610740611957565b60405161074d9190612fa3565b60405180910390f35b348015610761575f80fd5b5061077c60048036038101906107779190612bf2565b61197c565b6040516107899190612c37565b60405180910390f35b600d602052805f5260405f205f915054906101000a900460ff1681565b5f634906490660e01b7bffffffffffffffffffffffffffffffffffffffffffffffffffffffff1916827bffffffffffffffffffffffffffffffffffffffffffffffffffffffff19161480610808575061080782611999565b5b9050919050565b5f600a5f8481526020019081526020015f2090508060040160019054906101000a900460ff16610874576040517f08c379a000000000000000000000000000000000000000000000000000000000815260040161086b90613393565b60405180910390fd5b806004015f9054906101000a900460ff16156108c5576040517f08c379a00000000000000000000000000000000000000000000000000000000081526004016108bc906133fb565b60405180910390fd5b806002015481600301541061090f576040517f08c379a000000000000000000000000000000000000000000000000000000000815260040161090690613463565b60405180910390fd5b5f600854905061091f8582611a7a565b6109298184611a97565b83600b5f8381526020019081526020015f208190555034600c5f8381526020019081526020015f20819055506001600d5f8381526020019081526020015f205f6101000a81548160ff021916908315150217905550816003015f815480929190610992906134ae565b919050555060085f8154809291906109a9906134ae565b91905055505050505050565b600e602052805f5260405f205f915090505481565b60605f80546109d890613522565b80601f0160208091040260200160405190810160405280929190818152602001828054610a0490613522565b8015610a4f5780601f10610a2657610100808354040283529160200191610a4f565b820191905f5260205f20905b815481529060010190602001808311610a3257829003601f168201915b5050505050905090565b5f610a6382611af1565b50610a6d82611b77565b9050919050565b610a868282610a81611bb0565b611bb7565b5050565b600a602052805f5260405f205f91509050805f015f9054906101000a900473ffffffffffffffffffffffffffffffffffffffff1690806001018054610ace90613522565b80601f0160208091040260200160405190810160405280929190818152602001828054610afa90613522565b8015610b455780601f10610b1c57610100808354040283529160200191610b45565b820191905f5260205f20905b815481529060010190602001808311610b2857829003601f168201915b505050505090806002015490806003015490806004015f9054906101000a900460ff16908060040160019054906101000a900460ff16905086565b600c602052805f5260405f205f915090505481565b600f5f8281526020019081526020015f205f9054906101000a900460ff16610bf2576040517f08c379a0000000000000000000000000000000000000000000000000000000008152600401610be99061359c565b60405180910390fd5b600e5f8281526020019081526020015f20543414610c45576040517f08c379a0000000000000000000000000000000000000000000000000000000008152600401610c3c90613604565b60405180910390fd5b5f610c4f82611397565b9050610c5c813384611bc9565b5f600f5f8481526020019081526020015f205f6101000a81548160ff0219169083151502179055505f600e5f8481526020019081526020015f20819055505f8173ffffffffffffffffffffffffffffffffffffffff1634604051610cbf9061364f565b5f6040518083038185875af1925050503d805f8114610cf9576040519150601f19603f3d011682016040523d82523d5f602084013e610cfe565b606091505b5050905080610d42576040517f08c379a0000000000000000000000000000000000000000000000000000000008152600401610d39906136ad565b60405180910390fd5b505050565b5f73ffffffffffffffffffffffffffffffffffffffff168273ffffffffffffffffffffffffffffffffffffffff1603610db7575f6040517f64a0ae92000000000000000000000000000000000000000000000000000000008152600401610dae9190612fa3565b60405180910390fd5b5f610dca8383610dc5611bb0565b611d31565b90508373ffffffffffffffffffffffffffffffffffffffff168173ffffffffffffffffffffffffffffffffffffffff1614610e40578382826040517f64283d7b000000000000000000000000000000000000000000000000000000008152600401610e37939291906136cb565b60405180910390fd5b50505050565b600d5f8281526020019081526020015f205f9054906101000a900460ff16610ea3576040517f08c379a0000000000000000000000000000000000000000000000000000000008152600401610e9a9061374a565b60405180910390fd5b3373ffffffffffffffffffffffffffffffffffffffff16610ec382611397565b73ffffffffffffffffffffffffffffffffffffffff1614610f19576040517f08c379a0000000000000000000000000000000000000000000000000000000008152600401610f10906137b2565b60405180910390fd5b5f600b5f8381526020019081526020015f20549050600a5f8281526020019081526020015f206004015f9054906101000a900460ff16610f8e576040517f08c379a0000000000000000000000000000000000000000000000000000000008152600401610f859061381a565b60405180910390fd5b5f600c5f8481526020019081526020015f205490505f8111610fe5576040517f08c379a0000000000000000000000000000000000000000000000000000000008152600401610fdc90613882565b60405180910390fd5b610fee83611f3c565b5f600d5f8581526020019081526020015f205f6101000a81548160ff0219169083151502179055505f600c5f8581526020019081526020015f20819055505f3373ffffffffffffffffffffffffffffffffffffffff16826040516110519061364f565b5f6040518083038185875af1925050503d805f811461108b576040519150601f19603f3d011682016040523d82523d5f602084013e611090565b606091505b50509050806110d4576040517f08c379a00000000000000000000000000000000000000000000000000000000081526004016110cb906138ea565b60405180910390fd5b50505050565b3373ffffffffffffffffffffffffffffffffffffffff16600a5f8381526020019081526020015f205f015f9054906101000a900473ffffffffffffffffffffffffffffffffffffffff1673ffffffffffffffffffffffffffffffffffffffff161461117a576040517f08c379a000000000000000000000000000000000000000000000000000000000815260040161117190613952565b60405180910390fd5b6001600a5f8381526020019081526020015f206004015f6101000a81548160ff02191690831515021790555050565b6111c383838360405180602001604052805f815250611700565b505050565b3373ffffffffffffffffffffffffffffffffffffffff166111e883611397565b73ffffffffffffffffffffffffffffffffffffffff161461123e576040517f08c379a0000000000000000000000000000000000000000000000000000000008152600401611235906139ba565b60405180910390fd5b5f8111611280576040517f08c379a000000000000000000000000000000000000000000000000000000000815260040161127790613a22565b60405180910390fd5b600d5f8381526020019081526020015f205f9054906101000a900460ff166112dd576040517f08c379a00000000000000000000000000000000000000000000000000000000081526004016112d49061374a565b60405180910390fd5b5f600b5f8481526020019081526020015f20549050600a5f8281526020019081526020015f206004015f9054906101000a900460ff1615611353576040517f08c379a000000000000000000000000000000000000000000000000000000000815260040161134a90613a8a565b60405180910390fd5b6001600f5f8581526020019081526020015f205f6101000a81548160ff02191690831515021790555081600e5f8581526020019081526020015f2081905550505050565b5f6113a182611af1565b9050919050565b6113b0611fbe565b8060095f6101000a81548173ffffffffffffffffffffffffffffffffffffffff021916908373ffffffffffffffffffffffffffffffffffffffff16021790555050565b5f8073ffffffffffffffffffffffffffffffffffffffff168273ffffffffffffffffffffffffffffffffffffffff1603611464575f6040517f89c62b6400000000000000000000000000000000000000000000000000000000815260040161145b9190612fa3565b60405180910390fd5b60035f8373ffffffffffffffffffffffffffffffffffffffff1673ffffffffffffffffffffffffffffffffffffffff1681526020019081526020015f20549050919050565b6114b1611fbe565b6114ba5f612045565b565b60085481565b600a5f8481526020019081526020015f2060040160019054906101000a900460ff1615611524576040517f08c379a000000000000000000000000000000000000000000000000000000000815260040161151b90613af2565b60405180910390fd5b6040518060c001604052803373ffffffffffffffffffffffffffffffffffffffff1681526020018381526020018281526020015f81526020015f1515815260200160011515815250600a5f8581526020019081526020015f205f820151815f015f6101000a81548173ffffffffffffffffffffffffffffffffffffffff021916908373ffffffffffffffffffffffffffffffffffffffff16021790555060208201518160010190816115d69190613cad565b5060408201518160020155606082015181600301556080820151816004015f6101000a81548160ff02191690831515021790555060a08201518160040160016101000a81548160ff021916908315150217905550905050505050565b5f60075f9054906101000a900473ffffffffffffffffffffffffffffffffffffffff16905090565b60606001805461166990613522565b80601f016020809104026020016040519081016040528092919081815260200182805461169590613522565b80156116e05780601f106116b7576101008083540402835291602001916116e0565b820191905f5260205f20905b8154815290600101906020018083116116c357829003601f168201915b5050505050905090565b6116fc6116f5611bb0565b8383612108565b5050565b61170b848484610d47565b61171f611716611bb0565b85858585612271565b50505050565b600b602052805f5260405f205f915090505481565b606061174582611af1565b505f60065f8481526020019081526020015f20805461176390613522565b80601f016020809104026020016040519081016040528092919081815260200182805461178f90613522565b80156117da5780601f106117b1576101008083540402835291602001916117da565b820191905f5260205f20905b8154815290600101906020018083116117bd57829003601f168201915b505050505090505f6117ea61241d565b90505f8151036117fe578192505050611840565b5f8251111561183257808260405160200161181a929190613db6565b60405160208183030381529060405292505050611840565b61183b84612433565b925050505b919050565b5f60055f8473ffffffffffffffffffffffffffffffffffffffff1673ffffffffffffffffffffffffffffffffffffffff1681526020019081526020015f205f8373ffffffffffffffffffffffffffffffffffffffff1673ffffffffffffffffffffffffffffffffffffffff1681526020019081526020015f205f9054906101000a900460ff16905092915050565b6118db611fbe565b5f73ffffffffffffffffffffffffffffffffffffffff168173ffffffffffffffffffffffffffffffffffffffff160361194b575f6040517f1e4fbdf70000000000000000000000000000000000000000000000000000000081526004016119429190612fa3565b60405180910390fd5b61195481612045565b50565b60095f9054906101000a900473ffffffffffffffffffffffffffffffffffffffff1681565b600f602052805f5260405f205f915054906101000a900460ff1681565b5f7f80ac58cd000000000000000000000000000000000000000000000000000000007bffffffffffffffffffffffffffffffffffffffffffffffffffffffff1916827bffffffffffffffffffffffffffffffffffffffffffffffffffffffff19161480611a6357507f5b5e139f000000000000000000000000000000000000000000000000000000007bffffffffffffffffffffffffffffffffffffffffffffffffffffffff1916827bffffffffffffffffffffffffffffffffffffffffffffffffffffffff1916145b80611a735750611a7282612499565b5b9050919050565b611a93828260405180602001604052805f815250612502565b5050565b8060065f8481526020019081526020015f209081611ab59190613cad565b507ff8e1a15aba9398e019f0b49df1a4fde98ee17ae345cb5f6b5e2c27f5033e8ce782604051611ae59190612ee1565b60405180910390a15050565b5f80611afc83612525565b90505f73ffffffffffffffffffffffffffffffffffffffff168173ffffffffffffffffffffffffffffffffffffffff1603611b6e57826040517f7e273289000000000000000000000000000000000000000000000000000000008152600401611b659190612ee1565b60405180910390fd5b80915050919050565b5f60045f8381526020019081526020015f205f9054906101000a900473ffffffffffffffffffffffffffffffffffffffff169050919050565b5f33905090565b611bc4838383600161255e565b505050565b5f73ffffffffffffffffffffffffffffffffffffffff168273ffffffffffffffffffffffffffffffffffffffff1603611c39575f6040517f64a0ae92000000000000000000000000000000000000000000000000000000008152600401611c309190612fa3565b60405180910390fd5b5f611c4583835f611d31565b90505f73ffffffffffffffffffffffffffffffffffffffff168173ffffffffffffffffffffffffffffffffffffffff1603611cb757816040517f7e273289000000000000000000000000000000000000000000000000000000008152600401611cae9190612ee1565b60405180910390fd5b8373ffffffffffffffffffffffffffffffffffffffff168173ffffffffffffffffffffffffffffffffffffffff1614611d2b578382826040517f64283d7b000000000000000000000000000000000000000000000000000000008152600401611d22939291906136cb565b60405180910390fd5b50505050565b5f80611d3c84612525565b90505f73ffffffffffffffffffffffffffffffffffffffff168373ffffffffffffffffffffffffffffffffffffffff1614611d7d57611d7c81848661271d565b5b5f73ffffffffffffffffffffffffffffffffffffffff168173ffffffffffffffffffffffffffffffffffffffff1614611e0857611dbc5f855f8061255e565b600160035f8373ffffffffffffffffffffffffffffffffffffffff1673ffffffffffffffffffffffffffffffffffffffff1681526020019081526020015f205f82825403925050819055505b5f73ffffffffffffffffffffffffffffffffffffffff168573ffffffffffffffffffffffffffffffffffffffff1614611e8757600160035f8773ffffffffffffffffffffffffffffffffffffffff1673ffffffffffffffffffffffffffffffffffffffff1681526020019081526020015f205f82825401925050819055505b8460025f8681526020019081526020015f205f6101000a81548173ffffffffffffffffffffffffffffffffffffffff021916908373ffffffffffffffffffffffffffffffffffffffff160217905550838573ffffffffffffffffffffffffffffffffffffffff168273ffffffffffffffffffffffffffffffffffffffff167fddf252ad1be2c89b69c2b068fc378daa952ba7f163c4a11628f55a4df523b3ef60405160405180910390a4809150509392505050565b5f611f485f835f611d31565b90505f73ffffffffffffffffffffffffffffffffffffffff168173ffffffffffffffffffffffffffffffffffffffff1603611fba57816040517f7e273289000000000000000000000000000000000000000000000000000000008152600401611fb19190612ee1565b60405180910390fd5b5050565b611fc6611bb0565b73ffffffffffffffffffffffffffffffffffffffff16611fe4611632565b73ffffffffffffffffffffffffffffffffffffffff161461204357612007611bb0565b6040517f118cdaa700000000000000000000000000000000000000000000000000000000815260040161203a9190612fa3565b60405180910390fd5b565b5f60075f9054906101000a900473ffffffffffffffffffffffffffffffffffffffff1690508160075f6101000a81548173ffffffffffffffffffffffffffffffffffffffff021916908373ffffffffffffffffffffffffffffffffffffffff1602179055508173ffffffffffffffffffffffffffffffffffffffff168173ffffffffffffffffffffffffffffffffffffffff167f8be0079c531659141344cd1fd0a4f28419497f9722a3daafe3b4186f6b6457e060405160405180910390a35050565b5f73ffffffffffffffffffffffffffffffffffffffff168273ffffffffffffffffffffffffffffffffffffffff160361217857816040517f5b08ba1800000000000000000000000000000000000000000000000000000000815260040161216f9190612fa3565b60405180910390fd5b8060055f8573ffffffffffffffffffffffffffffffffffffffff1673ffffffffffffffffffffffffffffffffffffffff1681526020019081526020015f205f8473ffffffffffffffffffffffffffffffffffffffff1673ffffffffffffffffffffffffffffffffffffffff1681526020019081526020015f205f6101000a81548160ff0219169083151502179055508173ffffffffffffffffffffffffffffffffffffffff168373ffffffffffffffffffffffffffffffffffffffff167f17307eab39ab6107e8899845ad3d59bd9653f200f220920489ca2b5937696c31836040516122649190612c37565b60405180910390a3505050565b5f8373ffffffffffffffffffffffffffffffffffffffff163b1115612416578273ffffffffffffffffffffffffffffffffffffffff1663150b7a02868685856040518563ffffffff1660e01b81526004016122cf9493929190613e2b565b6020604051808303815f875af192505050801561230a57506040513d601f19601f820116820180604052508101906123079190613e89565b60015b61238b573d805f8114612338576040519150601f19603f3d011682016040523d82523d5f602084013e61233d565b606091505b505f81510361238357836040517f64a0ae9200000000000000000000000000000000000000000000000000000000815260040161237a9190612fa3565b60405180910390fd5b805181602001fd5b63150b7a0260e01b7bffffffffffffffffffffffffffffffffffffffffffffffffffffffff1916817bffffffffffffffffffffffffffffffffffffffffffffffffffffffff19161461241457836040517f64a0ae9200000000000000000000000000000000000000000000000000000000815260040161240b9190612fa3565b60405180910390fd5b505b5050505050565b606060405180602001604052805f815250905090565b606061243e82611af1565b505f61244861241d565b90505f8151116124665760405180602001604052805f815250612491565b80612470846127e0565b604051602001612481929190613db6565b6040516020818303038152906040525b915050919050565b5f7f01ffc9a7000000000000000000000000000000000000000000000000000000007bffffffffffffffffffffffffffffffffffffffffffffffffffffffff1916827bffffffffffffffffffffffffffffffffffffffffffffffffffffffff1916149050919050565b61250c83836128aa565b612520612517611bb0565b5f858585612271565b505050565b5f60025f8381526020019081526020015f205f9054906101000a900473ffffffffffffffffffffffffffffffffffffffff169050919050565b808061259657505f73ffffffffffffffffffffffffffffffffffffffff168273ffffffffffffffffffffffffffffffffffffffff1614155b156126c8575f6125a584611af1565b90505f73ffffffffffffffffffffffffffffffffffffffff168373ffffffffffffffffffffffffffffffffffffffff161415801561260f57508273ffffffffffffffffffffffffffffffffffffffff168173ffffffffffffffffffffffffffffffffffffffff1614155b801561262257506126208184611845565b155b1561266457826040517fa9fbf51f00000000000000000000000000000000000000000000000000000000815260040161265b9190612fa3565b60405180910390fd5b81156126c657838573ffffffffffffffffffffffffffffffffffffffff168273ffffffffffffffffffffffffffffffffffffffff167f8c5be1e5ebec7d5bd14f71427d1e84f3dd0314c0f7b2291e5b200ac8c7c3b92560405160405180910390a45b505b8360045f8581526020019081526020015f205f6101000a81548173ffffffffffffffffffffffffffffffffffffffff021916908373ffffffffffffffffffffffffffffffffffffffff16021790555050505050565b61272883838361299d565b6127db575f73ffffffffffffffffffffffffffffffffffffffff168373ffffffffffffffffffffffffffffffffffffffff160361279c57806040517f7e2732890000000000000000000000000000000000000000000000000000000081526004016127939190612ee1565b60405180910390fd5b81816040517f177e802f0000000000000000000000000000000000000000000000000000000081526004016127d2929190613eb4565b60405180910390fd5b505050565b60605f60016127ee84612a5d565b0190505f8167ffffffffffffffff81111561280c5761280b612d42565b5b6040519080825280601f01601f19166020018201604052801561283e5781602001600182028036833780820191505090505b5090505f82602001820190505b60011561289f578080600190039150507f3031323334353637383961626364656600000000000000000000000000000000600a86061a8153600a858161289457612893613edb565b5b0494505f850361284b575b819350505050919050565b5f73ffffffffffffffffffffffffffffffffffffffff168273ffffffffffffffffffffffffffffffffffffffff160361291a575f6040517f64a0ae920000000000000000000000000000000000000000000000000000000081526004016129119190612fa3565b60405180910390fd5b5f61292683835f611d31565b90505f73ffffffffffffffffffffffffffffffffffffffff168173ffffffffffffffffffffffffffffffffffffffff1614612998575f6040517f73c6ac6e00000000000000000000000000000000000000000000000000000000815260040161298f9190612fa3565b60405180910390fd5b505050565b5f8073ffffffffffffffffffffffffffffffffffffffff168373ffffffffffffffffffffffffffffffffffffffff1614158015612a5457508273ffffffffffffffffffffffffffffffffffffffff168473ffffffffffffffffffffffffffffffffffffffff161480612a155750612a148484611845565b5b80612a5357508273ffffffffffffffffffffffffffffffffffffffff16612a3b83611b77565b73ffffffffffffffffffffffffffffffffffffffff16145b5b90509392505050565b5f805f90507a184f03e93ff9f4daa797ed6e38ed64bf6a1f0100000000000000008310612ab9577a184f03e93ff9f4daa797ed6e38ed64bf6a1f0100000000000000008381612aaf57612aae613edb565b5b0492506040810190505b6d04ee2d6d415b85acef81000000008310612af6576d04ee2d6d415b85acef81000000008381612aec57612aeb613edb565b5b0492506020810190505b662386f26fc100008310612b2557662386f26fc100008381612b1b57612b1a613edb565b5b0492506010810190505b6305f5e1008310612b4e576305f5e1008381612b4457612b43613edb565b5b0492506008810190505b6127108310612b73576127108381612b6957612b68613edb565b5b0492506004810190505b60648310612b965760648381612b8c57612b8b613edb565b5b0492506002810190505b600a8310612ba5576001810190505b80915050919050565b5f604051905090565b5f80fd5b5f80fd5b5f819050919050565b612bd181612bbf565b8114612bdb575f80fd5b50565b5f81359050612bec81612bc8565b92915050565b5f60208284031215612c0757612c06612bb7565b5b5f612c1484828501612bde565b91505092915050565b5f8115159050919050565b612c3181612c1d565b82525050565b5f602082019050612c4a5f830184612c28565b92915050565b5f7fffffffff0000000000000000000000000000000000000000000000000000000082169050919050565b612c8481612c50565b8114612c8e575f80fd5b50565b5f81359050612c9f81612c7b565b92915050565b5f60208284031215612cba57612cb9612bb7565b5b5f612cc784828501612c91565b91505092915050565b5f73ffffffffffffffffffffffffffffffffffffffff82169050919050565b5f612cf982612cd0565b9050919050565b612d0981612cef565b8114612d13575f80fd5b50565b5f81359050612d2481612d00565b92915050565b5f80fd5b5f80fd5b5f601f19601f8301169050919050565b7f4e487b71000000000000000000000000000000000000000000000000000000005f52604160045260245ffd5b612d7882612d32565b810181811067ffffffffffffffff82111715612d9757612d96612d42565b5b80604052505050565b5f612da9612bae565b9050612db58282612d6f565b919050565b5f67ffffffffffffffff821115612dd457612dd3612d42565b5b612ddd82612d32565b9050602081019050919050565b828183375f83830152505050565b5f612e0a612e0584612dba565b612da0565b905082815260208101848484011115612e2657612e25612d2e565b5b612e31848285612dea565b509392505050565b5f82601f830112612e4d57612e4c612d2a565b5b8135612e5d848260208601612df8565b91505092915050565b5f805f60608486031215612e7d57612e7c612bb7565b5b5f612e8a86828701612d16565b9350506020612e9b86828701612bde565b925050604084013567ffffffffffffffff811115612ebc57612ebb612bbb565b5b612ec886828701612e39565b9150509250925092565b612edb81612bbf565b82525050565b5f602082019050612ef45f830184612ed2565b92915050565b5f81519050919050565b5f82825260208201905092915050565b5f5b83811015612f31578082015181840152602081019050612f16565b5f8484015250505050565b5f612f4682612efa565b612f508185612f04565b9350612f60818560208601612f14565b612f6981612d32565b840191505092915050565b5f6020820190508181035f830152612f8c8184612f3c565b905092915050565b612f9d81612cef565b82525050565b5f602082019050612fb65f830184612f94565b92915050565b5f8060408385031215612fd257612fd1612bb7565b5b5f612fdf85828601612d16565b9250506020612ff085828601612bde565b9150509250929050565b5f60c08201905061300d5f830189612f94565b818103602083015261301f8188612f3c565b905061302e6040830187612ed2565b61303b6060830186612ed2565b6130486080830185612c28565b61305560a0830184612c28565b979650505050505050565b5f805f6060848603121561307757613076612bb7565b5b5f61308486828701612d16565b935050602061309586828701612d16565b92505060406130a686828701612bde565b9150509250925092565b5f80604083850312156130c6576130c5612bb7565b5b5f6130d385828601612bde565b92505060206130e485828601612bde565b9150509250929050565b5f6020828403121561310357613102612bb7565b5b5f61311084828501612d16565b91505092915050565b5f805f606084860312156131305761312f612bb7565b5b5f61313d86828701612bde565b935050602084013567ffffffffffffffff81111561315e5761315d612bbb565b5b61316a86828701612e39565b925050604061317b86828701612bde565b9150509250925092565b61318e81612c1d565b8114613198575f80fd5b50565b5f813590506131a981613185565b92915050565b5f80604083850312156131c5576131c4612bb7565b5b5f6131d285828601612d16565b92505060206131e38582860161319b565b9150509250929050565b5f67ffffffffffffffff82111561320757613206612d42565b5b61321082612d32565b9050602081019050919050565b5f61322f61322a846131ed565b612da0565b90508281526020810184848401111561324b5761324a612d2e565b5b613256848285612dea565b509392505050565b5f82601f83011261327257613271612d2a565b5b813561328284826020860161321d565b91505092915050565b5f805f80608085870312156132a3576132a2612bb7565b5b5f6132b087828801612d16565b94505060206132c187828801612d16565b93505060406132d287828801612bde565b925050606085013567ffffffffffffffff8111156132f3576132f2612bbb565b5b6132ff8782880161325e565b91505092959194509250565b5f806040838503121561332157613320612bb7565b5b5f61332e85828601612d16565b925050602061333f85828601612d16565b9150509250929050565b7f4576656e7420646f6573206e6f742065786973740000000000000000000000005f82015250565b5f61337d601483612f04565b915061338882613349565b602082019050919050565b5f6020820190508181035f8301526133aa81613371565b9050919050565b7f4576656e742063616e63656c6c656400000000000000000000000000000000005f82015250565b5f6133e5600f83612f04565b91506133f0826133b1565b602082019050919050565b5f6020820190508181035f830152613412816133d9565b9050919050565b7f416c6c207469636b65747320736f6c64000000000000000000000000000000005f82015250565b5f61344d601083612f04565b915061345882613419565b602082019050919050565b5f6020820190508181035f83015261347a81613441565b9050919050565b7f4e487b71000000000000000000000000000000000000000000000000000000005f52601160045260245ffd5b5f6134b882612bbf565b91507fffffffffffffffffffffffffffffffffffffffffffffffffffffffffffffffff82036134ea576134e9613481565b5b600182019050919050565b7f4e487b71000000000000000000000000000000000000000000000000000000005f52602260045260245ffd5b5f600282049050600182168061353957607f821691505b60208210810361354c5761354b6134f5565b5b50919050565b7f4e6f7420666f722073616c6500000000000000000000000000000000000000005f82015250565b5f613586600c83612f04565b915061359182613552565b602082019050919050565b5f6020820190508181035f8301526135b38161357a565b9050919050565b7f496e636f727265637420707269636500000000000000000000000000000000005f82015250565b5f6135ee600f83612f04565b91506135f9826135ba565b602082019050919050565b5f6020820190508181035f83015261361b816135e2565b9050919050565b5f81905092915050565b50565b5f61363a5f83613622565b91506136458261362c565b5f82019050919050565b5f6136598261362f565b9150819050919050565b7f5061796d656e74206661696c65640000000000000000000000000000000000005f82015250565b5f613697600e83612f04565b91506136a282613663565b602082019050919050565b5f6020820190508181035f8301526136c48161368b565b9050919050565b5f6060820190506136de5f830186612f94565b6136eb6020830185612ed2565b6136f86040830184612f94565b949350505050565b7f5469636b657420646f65736e27742065786973740000000000000000000000005f82015250565b5f613734601483612f04565b915061373f82613700565b602082019050919050565b5f6020820190508181035f83015261376181613728565b9050919050565b7f4e6f74207469636b6574206f776e6572000000000000000000000000000000005f82015250565b5f61379c601083612f04565b91506137a782613768565b602082019050919050565b5f6020820190508181035f8301526137c981613790565b9050919050565b7f4576656e74206e6f742063616e63656c6c6564000000000000000000000000005f82015250565b5f613804601383612f04565b915061380f826137d0565b602082019050919050565b5f6020820190508181035f830152613831816137f8565b9050919050565b7f416c726561647920726566756e646564206f72206e6f207072696365000000005f82015250565b5f61386c601c83612f04565b915061387782613838565b602082019050919050565b5f6020820190508181035f83015261389981613860565b9050919050565b7f526566756e64206661696c6564000000000000000000000000000000000000005f82015250565b5f6138d4600d83612f04565b91506138df826138a0565b602082019050919050565b5f6020820190508181035f830152613901816138c8565b9050919050565b7f4e6f74206f7267616e697a6572000000000000000000000000000000000000005f82015250565b5f61393c600d83612f04565b915061394782613908565b602082019050919050565b5f6020820190508181035f83015261396981613930565b9050919050565b7f4e6f74206f776e657200000000000000000000000000000000000000000000005f82015250565b5f6139a4600983612f04565b91506139af82613970565b602082019050919050565b5f6020820190508181035f8301526139d181613998565b9050919050565b7f5072696365206d757374206265203e20300000000000000000000000000000005f82015250565b5f613a0c601183612f04565b9150613a17826139d8565b602082019050919050565b5f6020820190508181035f830152613a3981613a00565b9050919050565b7f4576656e742069732063616e63656c6c656400000000000000000000000000005f82015250565b5f613a74601283612f04565b9150613a7f82613a40565b602082019050919050565b5f6020820190508181035f830152613aa181613a68565b9050919050565b7f4576656e7420616c7265616479206578697374730000000000000000000000005f82015250565b5f613adc601483612f04565b9150613ae782613aa8565b602082019050919050565b5f6020820190508181035f830152613b0981613ad0565b9050919050565b5f819050815f5260205f209050919050565b5f6020601f8301049050919050565b5f82821b905092915050565b5f60088302613b6c7fffffffffffffffffffffffffffffffffffffffffffffffffffffffffffffffff82613b31565b613b768683613b31565b95508019841693508086168417925050509392505050565b5f819050919050565b5f613bb1613bac613ba784612bbf565b613b8e565b612bbf565b9050919050565b5f819050919050565b613bca83613b97565b613bde613bd682613bb8565b848454613b3d565b825550505050565b5f90565b613bf2613be6565b613bfd818484613bc1565b505050565b5b81811015613c2057613c155f82613bea565b600181019050613c03565b5050565b601f821115613c6557613c3681613b10565b613c3f84613b22565b81016020851015613c4e578190505b613c62613c5a85613b22565b830182613c02565b50505b505050565b5f82821c905092915050565b5f613c855f1984600802613c6a565b1980831691505092915050565b5f613c9d8383613c76565b9150826002028217905092915050565b613cb682612efa565b67ffffffffffffffff811115613ccf57613cce612d42565b5b613cd98254613522565b613ce4828285613c24565b5f60209050601f831160018114613d15575f8415613d03578287015190505b613d0d8582613c92565b865550613d74565b601f198416613d2386613b10565b5f5b82811015613d4a57848901518255600182019150602085019450602081019050613d25565b86831015613d675784890151613d63601f891682613c76565b8355505b6001600288020188555050505b505050505050565b5f81905092915050565b5f613d9082612efa565b613d9a8185613d7c565b9350613daa818560208601612f14565b80840191505092915050565b5f613dc18285613d86565b9150613dcd8284613d86565b91508190509392505050565b5f81519050919050565b5f82825260208201905092915050565b5f613dfd82613dd9565b613e078185613de3565b9350613e17818560208601612f14565b613e2081612d32565b840191505092915050565b5f608082019050613e3e5f830187612f94565b613e4b6020830186612f94565b613e586040830185612ed2565b8181036060830152613e6a8184613df3565b905095945050505050565b5f81519050613e8381612c7b565b92915050565b5f60208284031215613e9e57613e9d612bb7565b5b5f613eab84828501613e75565b91505092915050565b5f604082019050613ec75f830185612f94565b613ed46020830184612ed2565b9392505050565b7f4e487b71000000000000000000000000000000000000000000000000000000005f52601260045260245ffdfea26469706673582212208e64dec5b8f092cafb067ef2cd8b90fb75de0ceaaaca01f66a77fb1facf3a8a164736f6c63430008150033",
  "immutableReferences": {},
  "source": "// SPDX-License-Identifier: MIT\npragma solidity ^0.8.19;\n\nimport \"@openzeppelin/contracts/token/ERC721/extensions/ERC721URIStorage.sol\";\nimport \"@openzeppelin/contracts/access/Ownable.sol\";\n\ncontract EventureNFT is ERC721URIStorage, Ownable {\n    uint256 public nextTokenId;\n    address public admin;\n\n    struct Event {\n        address organizer;\n        string metadataHash;\n        uint256 maxTickets;\n        uint256 soldCount;\n        bool isCancelled;\n        bool exists;\n    }\n\n    mapping(uint256 => Event) public events;\n    mapping(uint256 => uint256) public ticketEvent;   // tokenId => eventId\n    mapping(uint256 => uint256) public ticketPrice;   // tokenId => price paid\n    mapping(uint256 => bool) public tokenExists;      // tokenId => minted\n\n    mapping(uint256 => uint256) public resalePrice;\n    mapping(uint256 => bool) public isListed;\n\n    constructor() ERC721(\"EventureTicket\", \"ETIX\") Ownable(msg.sender) {\n        admin = msg.sender;\n    }\n\n    modifier onlyAdmin() {\n        require(msg.sender == admin, \"Not admin\");\n        _;\n    }\n\n    function createEvent(\n        uint256 eventId,\n        string memory metadataHash,\n        uint256 maxTickets\n    ) external {\n        require(!events[eventId].exists, \"Event already exists\");\n        events[eventId] = Event({\n            organizer: msg.sender,\n            metadataHash: metadataHash,\n            maxTickets: maxTickets,\n            soldCount: 0,\n            isCancelled: false,\n            exists: true\n        });\n    }\n\n    function mintTicket(\n        address to,\n        uint256 eventId,\n        string memory tokenURI\n    ) external payable {\n        Event storage e = events[eventId];\n        require(e.exists, \"Event does not exist\");\n        require(!e.isCancelled, \"Event cancelled\");\n        require(e.soldCount < e.maxTickets, \"All tickets sold\");\n\n        uint256 tokenId = nextTokenId;\n\n        _safeMint(to, tokenId);\n        _setTokenURI(tokenId, tokenURI);\n\n        ticketEvent[tokenId] = eventId;\n        ticketPrice[tokenId] = msg.value;\n        tokenExists[tokenId] = true;\n\n        e.soldCount++;\n        nextTokenId++;\n    }\n\n    function cancelEvent(uint256 eventId) external {\n        require(events[eventId].organizer == msg.sender, \"Not organizer\");\n        events[eventId].isCancelled = true;\n    }\n\n    function refund(uint256 tokenId) external {\n        require(tokenExists[tokenId], \"Ticket doesn't exist\");\n        require(ownerOf(tokenId) == msg.sender, \"Not ticket owner\");\n\n        uint256 eventId = ticketEvent[tokenId];\n        require(events[eventId].isCancelled, \"Event not cancelled\");\n\n        uint256 price = ticketPrice[tokenId];\n        require(price > 0, \"Already refunded or no price\");\n\n        _burn(tokenId);\n        tokenExists[tokenId] = false;\n        ticketPrice[tokenId] = 0;\n\n        (bool sent, ) = payable(msg.sender).call{value: price}(\"\");\n        require(sent, \"Refund failed\");\n    }\n\n    function listTicketForResale(uint256 tokenId, uint256 price) external {\n        require(ownerOf(tokenId) == msg.sender, \"Not owner\");\n        require(price > 0, \"Price must be > 0\");\n        require(tokenExists[tokenId], \"Ticket doesn't exist\");\n        uint256 eventId = ticketEvent[tokenId];\n        require(!events[eventId].isCancelled, \"Event is cancelled\");\n\n        isListed[tokenId] = true;\n        resalePrice[tokenId] = price;\n    }\n\n    function buyResaleTicket(uint256 tokenId) external payable {\n        require(isListed[tokenId], \"Not for sale\");\n        require(msg.value == resalePrice[tokenId], \"Incorrect price\");\n\n        address seller = ownerOf(tokenId);\n        _transfer(seller, msg.sender, tokenId);\n\n        isListed[tokenId] = false;\n        resalePrice[tokenId] = 0;\n\n        (bool sent, ) = payable(seller).call{value: msg.value}(\"\");\n        require(sent, \"Payment failed\");\n    }\n\n    function setAdmin(address newAdmin) external onlyOwner {\n        admin = newAdmin;\n    }\n\n    receive() external payable {}\n}",
  "sourcePath": "/home/satvik/Desktop/BrandProduct/contracts/Eventure.sol",
  "compiler": {
    "name": "solc",
    "version": "0.8.21+commit.d9974bed.Emscripten.clang"
  },
  "schemaVersion": "3.4.16",
  "updatedAt": "2025-06-16T15:09:26.847Z",
  "networkType": "ethereum",
  "devdoc": {
    "errors": {
      "ERC721IncorrectOwner(address,uint256,address)": [
        {
          "details": "Indicates an error related to the ownership over a particular token. Used in transfers.",
          "params": {
            "owner": "Address of the current owner of a token.",
            "sender": "Address whose tokens are being transferred.",
            "tokenId": "Identifier number of a token."
          }
        }
      ],
      "ERC721InsufficientApproval(address,uint256)": [
        {
          "details": "Indicates a failure with the `operator`s approval. Used in transfers.",
          "params": {
            "operator": "Address that may be allowed to operate on tokens without being their owner.",
            "tokenId": "Identifier number of a token."
          }
        }
      ],
      "ERC721InvalidApprover(address)": [
        {
          "details": "Indicates a failure with the `approver` of a token to be approved. Used in approvals.",
          "params": {
            "approver": "Address initiating an approval operation."
          }
        }
      ],
      "ERC721InvalidOperator(address)": [
        {
          "details": "Indicates a failure with the `operator` to be approved. Used in approvals.",
          "params": {
            "operator": "Address that may be allowed to operate on tokens without being their owner."
          }
        }
      ],
      "ERC721InvalidOwner(address)": [
        {
          "details": "Indicates that an address can't be an owner. For example, `address(0)` is a forbidden owner in ERC-20. Used in balance queries.",
          "params": {
            "owner": "Address of the current owner of a token."
          }
        }
      ],
      "ERC721InvalidReceiver(address)": [
        {
          "details": "Indicates a failure with the token `receiver`. Used in transfers.",
          "params": {
            "receiver": "Address to which tokens are being transferred."
          }
        }
      ],
      "ERC721InvalidSender(address)": [
        {
          "details": "Indicates a failure with the token `sender`. Used in transfers.",
          "params": {
            "sender": "Address whose tokens are being transferred."
          }
        }
      ],
      "ERC721NonexistentToken(uint256)": [
        {
          "details": "Indicates a `tokenId` whose `owner` is the zero address.",
          "params": {
            "tokenId": "Identifier number of a token."
          }
        }
      ],
      "OwnableInvalidOwner(address)": [
        {
          "details": "The owner is not a valid owner account. (eg. `address(0)`)"
        }
      ],
      "OwnableUnauthorizedAccount(address)": [
        {
          "details": "The caller account is not authorized to perform an operation."
        }
      ]
    },
    "events": {
      "Approval(address,address,uint256)": {
        "details": "Emitted when `owner` enables `approved` to manage the `tokenId` token."
      },
      "ApprovalForAll(address,address,bool)": {
        "details": "Emitted when `owner` enables or disables (`approved`) `operator` to manage all of its assets."
      },
      "BatchMetadataUpdate(uint256,uint256)": {
        "details": "This event emits when the metadata of a range of tokens is changed. So that the third-party platforms such as NFT market could timely update the images and related attributes of the NFTs."
      },
      "MetadataUpdate(uint256)": {
        "details": "This event emits when the metadata of a token is changed. So that the third-party platforms such as NFT market could timely update the images and related attributes of the NFT."
      },
      "Transfer(address,address,uint256)": {
        "details": "Emitted when `tokenId` token is transferred from `from` to `to`."
      }
    },
    "kind": "dev",
    "methods": {
      "approve(address,uint256)": {
        "details": "See {IERC721-approve}."
      },
      "balanceOf(address)": {
        "details": "See {IERC721-balanceOf}."
      },
      "getApproved(uint256)": {
        "details": "See {IERC721-getApproved}."
      },
      "isApprovedForAll(address,address)": {
        "details": "See {IERC721-isApprovedForAll}."
      },
      "name()": {
        "details": "See {IERC721Metadata-name}."
      },
      "owner()": {
        "details": "Returns the address of the current owner."
      },
      "ownerOf(uint256)": {
        "details": "See {IERC721-ownerOf}."
      },
      "renounceOwnership()": {
        "details": "Leaves the contract without owner. It will not be possible to call `onlyOwner` functions. Can only be called by the current owner. NOTE: Renouncing ownership will leave the contract without an owner, thereby disabling any functionality that is only available to the owner."
      },
      "safeTransferFrom(address,address,uint256)": {
        "details": "See {IERC721-safeTransferFrom}."
      },
      "safeTransferFrom(address,address,uint256,bytes)": {
        "details": "See {IERC721-safeTransferFrom}."
      },
      "setApprovalForAll(address,bool)": {
        "details": "See {IERC721-setApprovalForAll}."
      },
      "supportsInterface(bytes4)": {
        "details": "See {IERC165-supportsInterface}"
      },
      "symbol()": {
        "details": "See {IERC721Metadata-symbol}."
      },
      "tokenURI(uint256)": {
        "details": "See {IERC721Metadata-tokenURI}."
      },
      "transferFrom(address,address,uint256)": {
        "details": "See {IERC721-transferFrom}."
      },
      "transferOwnership(address)": {
        "details": "Transfers ownership of the contract to a new account (`newOwner`). Can only be called by the current owner."
      }
    },
    "version": 1
  },
  "userdoc": {
    "kind": "user",
    "methods": {},
    "version": 1
  }
}